{
  "contractName": "Ticketing",
  "abi": [
    {
      "constant": true,
      "inputs": [
        {
          "name": "",
          "type": "uint256"
        }
      ],
      "name": "events",
      "outputs": [
        {
          "name": "eventOwner",
          "type": "address"
        },
        {
          "name": "eventName",
          "type": "string"
        },
        {
          "name": "location",
          "type": "string"
        },
        {
          "name": "price",
          "type": "uint256"
        },
        {
          "name": "numAvail",
          "type": "uint256"
        }
      ],
      "payable": false,
      "stateMutability": "view",
      "type": "function"
    },
    {
      "constant": true,
      "inputs": [
        {
          "name": "",
          "type": "uint256"
        }
      ],
      "name": "ownedTickets",
      "outputs": [
        {
          "name": "ticketOwner",
          "type": "address"
        },
        {
          "name": "eventName",
          "type": "string"
        },
        {
          "name": "ticketCount",
          "type": "uint256"
        },
        {
          "name": "location",
          "type": "string"
        },
        {
          "name": "price",
          "type": "uint256"
        },
        {
          "name": "isSellable",
          "type": "bool"
        },
        {
          "name": "numEvent",
          "type": "uint256"
        }
      ],
      "payable": false,
      "stateMutability": "view",
      "type": "function"
    },
    {
      "constant": true,
      "inputs": [
        {
          "name": "",
          "type": "uint256"
        }
      ],
      "name": "tickets",
      "outputs": [
        {
          "name": "ticketOwner",
          "type": "address"
        },
        {
          "name": "eventName",
          "type": "string"
        },
        {
          "name": "ticketCount",
          "type": "uint256"
        },
        {
          "name": "location",
          "type": "string"
        },
        {
          "name": "price",
          "type": "uint256"
        },
        {
          "name": "isSellable",
          "type": "bool"
        },
        {
          "name": "numEvent",
          "type": "uint256"
        }
      ],
      "payable": false,
      "stateMutability": "view",
      "type": "function"
    },
    {
      "constant": true,
      "inputs": [],
      "name": "eventCount",
      "outputs": [
        {
          "name": "",
          "type": "uint256"
        }
      ],
      "payable": false,
      "stateMutability": "view",
      "type": "function"
    },
    {
      "constant": true,
      "inputs": [],
      "name": "numMyTickets",
      "outputs": [
        {
          "name": "",
          "type": "uint256"
        }
      ],
      "payable": false,
      "stateMutability": "view",
      "type": "function"
    },
    {
      "constant": true,
      "inputs": [],
      "name": "ticketCount",
      "outputs": [
        {
          "name": "",
          "type": "uint256"
        }
      ],
      "payable": false,
      "stateMutability": "view",
      "type": "function"
    },
    {
      "inputs": [],
      "payable": false,
      "stateMutability": "nonpayable",
      "type": "constructor"
    },
    {
      "anonymous": false,
      "inputs": [
        {
          "indexed": false,
          "name": "success",
          "type": "bool"
        }
      ],
      "name": "myTicketShow",
      "type": "event"
    },
    {
      "constant": false,
      "inputs": [],
      "name": "myTickets",
      "outputs": [],
      "payable": false,
      "stateMutability": "nonpayable",
      "type": "function"
    },
    {
      "constant": false,
      "inputs": [
        {
          "name": "_ticketOwner",
          "type": "address"
        },
        {
          "name": "_eventName",
          "type": "string"
        },
        {
          "name": "_location",
          "type": "string"
        },
        {
          "name": "_price",
          "type": "uint256"
        },
        {
          "name": "_eventCount",
          "type": "uint256"
        }
      ],
      "name": "addTicket",
      "outputs": [],
      "payable": false,
      "stateMutability": "nonpayable",
      "type": "function"
    },
    {
      "constant": false,
      "inputs": [
        {
          "name": "_eventName",
          "type": "string"
        },
        {
          "name": "_location",
          "type": "string"
        },
        {
          "name": "_numAvail",
          "type": "uint256"
        },
        {
          "name": "_price",
          "type": "uint256"
        }
      ],
      "name": "createEvent",
      "outputs": [],
      "payable": false,
      "stateMutability": "nonpayable",
      "type": "function"
    },
    {
      "constant": false,
      "inputs": [
        {
          "name": "_eventName",
          "type": "string"
        }
      ],
      "name": "buy",
      "outputs": [],
      "payable": true,
      "stateMutability": "payable",
      "type": "function"
    },
    {
      "constant": false,
      "inputs": [
        {
          "name": "_ticketCount",
          "type": "uint256"
        },
        {
          "name": "_eventCount",
          "type": "uint256"
        }
      ],
      "name": "sell",
      "outputs": [],
      "payable": false,
      "stateMutability": "nonpayable",
      "type": "function"
    },
    {
      "constant": false,
      "inputs": [],
      "name": "endContract",
      "outputs": [],
      "payable": false,
      "stateMutability": "nonpayable",
      "type": "function"
    }
  ],
  "bytecode": "0x608060405260e0604051908101604052806040805190810160405280600781526020017f546f726f6e746f0000000000000000000000000000000000000000000000000081525081526020016040805190810160405280600881526020017f4d6f6e747265616c00000000000000000000000000000000000000000000000081525081526020016040805190810160405280600781526020017f43616c676172790000000000000000000000000000000000000000000000000081525081526020016040805190810160405280600681526020017f4f7474617761000000000000000000000000000000000000000000000000000081525081526020016040805190810160405280600781526020017f48616c696661780000000000000000000000000000000000000000000000000081525081526020016040805190810160405280600881526020017f4e657720596f726b00000000000000000000000000000000000000000000000081525081526020016040805190810160405280600681526020017f426f73746f6e00000000000000000000000000000000000000000000000000008152508152506005906007620001bd929190620006e9565b50348015620001cb57600080fd5b50336000806101000a81548173ffffffffffffffffffffffffffffffffffffffff021916908373ffffffffffffffffffffffffffffffffffffffff160217905550620002986040805190810160405280600981526020017f696e69744576656e7400000000000000000000000000000000000000000000008152506040805190810160405280600781526020017f546f726f6e746f00000000000000000000000000000000000000000000000000815250600263054c56386200032a640100000000026401000000009004565b620003246040805190810160405280600b81526020017f7365636f6e644576656e740000000000000000000000000000000000000000008152506040805190810160405280600781526020017f546f726f6e746f00000000000000000000000000000000000000000000000000815250600263054c56386200032a640100000000026401000000009004565b6200087c565b60008090505b6004548110156200046057846040516020018082805190602001908083835b6020831015156200037657805182526020820191506020810190506020830392506200034f565b6001836020036101000a03801982511681845116808217855250505050505090500191505060405160208183030381529060405280519060200120600360008381526020019081526020016000206001016040516020018082805460018160011615610100020316600290048015620004295780601f106200040657610100808354040283529182019162000429565b820191906000526020600020905b81548152906001019060200180831162000414575b505091505060405160208183030381529060405280519060200120141515156200045257600080fd5b808060010191505062000330565b5060046000815480929190600101919050555060a0604051908101604052803373ffffffffffffffffffffffffffffffffffffffff1681526020018581526020018481526020018281526020018381525060036000600454815260200190815260200160002060008201518160000160006101000a81548173ffffffffffffffffffffffffffffffffffffffff021916908373ffffffffffffffffffffffffffffffffffffffff16021790555060208201518160010190805190602001906200052b92919062000750565b5060408201518160020190805190602001906200054a92919062000750565b50606082015181600301556080820151816004015590505060008090505b828110156200059f576200059133868685600454620005a6640100000000026401000000009004565b808060010191505062000568565b5050505050565b60026000815480929190600101919050555060e0604051908101604052808673ffffffffffffffffffffffffffffffffffffffff16815260200185815260200160025481526020018481526020018381526020016001151581526020018281525060016000600254815260200190815260200160002060008201518160000160006101000a81548173ffffffffffffffffffffffffffffffffffffffff021916908373ffffffffffffffffffffffffffffffffffffffff16021790555060208201518160010190805190602001906200068192919062000750565b50604082015181600201556060820151816003019080519060200190620006aa92919062000750565b506080820151816004015560a08201518160050160006101000a81548160ff02191690831515021790555060c082015181600601559050505050505050565b8280548282559060005260206000209081019282156200073d579160200282015b828111156200073c5782518290805190602001906200072b92919062000750565b50916020019190600101906200070a565b5b5090506200074c9190620007d7565b5090565b828054600181600116156101000203166002900490600052602060002090601f016020900481019282601f106200079357805160ff1916838001178555620007c4565b82800160010185558215620007c4579182015b82811115620007c3578251825591602001919060010190620007a6565b5b509050620007d3919062000808565b5090565b6200080591905b80821115620008015760008181620007f7919062000830565b50600101620007de565b5090565b90565b6200082d91905b80821115620008295760008160009055506001016200080f565b5090565b90565b50805460018160011615610100020316600290046000825580601f1062000858575062000879565b601f01602090049060005260206000209081019062000878919062000808565b5b50565b611a05806200088c6000396000f3fe6080604052600436106100b9576000357c0100000000000000000000000000000000000000000000000000000000900463ffffffff168062ea8737146100be5780630b791430146100d557806316f8cbbb14610236578063492cc769146103a957806350b447121461046457806371be2e4a146105d75780637312f48814610602578063ba408c5214610795578063bb6e7de9146107c0578063bce062b9146107d7578063cfbd900f1461094a578063d79875eb14610975575b600080fd5b3480156100ca57600080fd5b506100d36109ba565b005b3480156100e157600080fd5b5061010e600480360360208110156100f857600080fd5b8101908080359060200190929190505050610bc0565b604051808673ffffffffffffffffffffffffffffffffffffffff1673ffffffffffffffffffffffffffffffffffffffff1681526020018060200180602001858152602001848152602001838103835287818151815260200191508051906020019080838360005b83811015610190578082015181840152602081019050610175565b50505050905090810190601f1680156101bd5780820380516001836020036101000a031916815260200191505b50838103825286818151815260200191508051906020019080838360005b838110156101f65780820151818401526020810190506101db565b50505050905090810190601f1680156102235780820380516001836020036101000a031916815260200191505b5097505050505050505060405180910390f35b34801561024257600080fd5b5061026f6004803603602081101561025957600080fd5b8101908080359060200190929190505050610d46565b604051808873ffffffffffffffffffffffffffffffffffffffff1673ffffffffffffffffffffffffffffffffffffffff168152602001806020018781526020018060200186815260200185151515158152602001848152602001838103835289818151815260200191508051906020019080838360005b838110156103015780820151818401526020810190506102e6565b50505050905090810190601f16801561032e5780820380516001836020036101000a031916815260200191505b50838103825287818151815260200191508051906020019080838360005b8381101561036757808201518184015260208101905061034c565b50505050905090810190601f1680156103945780820380516001836020036101000a031916815260200191505b50995050505050505050505060405180910390f35b610462600480360360208110156103bf57600080fd5b81019080803590602001906401000000008111156103dc57600080fd5b8201836020820111156103ee57600080fd5b8035906020019184600183028401116401000000008311171561041057600080fd5b91908080601f016020809104026020016040519081016040528093929190818152602001838380828437600081840152601f19601f820116905080830192505050505050509192919290505050610ee5565b005b34801561047057600080fd5b5061049d6004803603602081101561048757600080fd5b8101908080359060200190929190505050611204565b604051808873ffffffffffffffffffffffffffffffffffffffff1673ffffffffffffffffffffffffffffffffffffffff168152602001806020018781526020018060200186815260200185151515158152602001848152602001838103835289818151815260200191508051906020019080838360005b8381101561052f578082015181840152602081019050610514565b50505050905090810190601f16801561055c5780820380516001836020036101000a031916815260200191505b50838103825287818151815260200191508051906020019080838360005b8381101561059557808201518184015260208101905061057a565b50505050905090810190601f1680156105c25780820380516001836020036101000a031916815260200191505b50995050505050505050505060405180910390f35b3480156105e357600080fd5b506105ec6113a3565b6040518082815260200191505060405180910390f35b34801561060e57600080fd5b50610793600480360360a081101561062557600080fd5b81019080803573ffffffffffffffffffffffffffffffffffffffff1690602001909291908035906020019064010000000081111561066257600080fd5b82018360208201111561067457600080fd5b8035906020019184600183028401116401000000008311171561069657600080fd5b91908080601f016020809104026020016040519081016040528093929190818152602001838380828437600081840152601f19601f820116905080830192505050505050509192919290803590602001906401000000008111156106f957600080fd5b82018360208201111561070b57600080fd5b8035906020019184600183028401116401000000008311171561072d57600080fd5b91908080601f016020809104026020016040519081016040528093929190818152602001838380828437600081840152601f19601f82011690508083019250505050505050919291929080359060200190929190803590602001909291905050506113a9565b005b3480156107a157600080fd5b506107aa6114e8565b6040518082815260200191505060405180910390f35b3480156107cc57600080fd5b506107d56114ee565b005b3480156107e357600080fd5b50610948600480360360808110156107fa57600080fd5b810190808035906020019064010000000081111561081757600080fd5b82018360208201111561082957600080fd5b8035906020019184600183028401116401000000008311171561084b57600080fd5b91908080601f016020809104026020016040519081016040528093929190818152602001838380828437600081840152601f19601f820116905080830192505050505050509192919290803590602001906401000000008111156108ae57600080fd5b8201836020820111156108c057600080fd5b803590602001918460018302840111640100000000831117156108e257600080fd5b91908080601f016020809104026020016040519081016040528093929190818152602001838380828437600081840152601f19601f8201169050808301925050505050505091929192908035906020019092919080359060200190929190505050611583565b005b34801561095657600080fd5b5061095f6117df565b6040518082815260200191505060405180910390f35b34801561098157600080fd5b506109b86004803603604081101561099857600080fd5b8101908080359060200190929190803590602001909291905050506117e5565b005b60008090505b600254811015610b81573373ffffffffffffffffffffffffffffffffffffffff166001600083815260200190815260200160002060000160009054906101000a900473ffffffffffffffffffffffffffffffffffffffff1673ffffffffffffffffffffffffffffffffffffffff161415610b7457600760008154809291906001019190505550600160008281526020019081526020016000206006600060075481526020019081526020016000206000820160009054906101000a900473ffffffffffffffffffffffffffffffffffffffff168160000160006101000a81548173ffffffffffffffffffffffffffffffffffffffff021916908373ffffffffffffffffffffffffffffffffffffffff16021790555060018201816001019080546001816001161561010002031660029004610afc9291906118ad565b506002820154816002015560038201816003019080546001816001161561010002031660029004610b2e9291906118ad565b50600482015481600401556005820160009054906101000a900460ff168160050160006101000a81548160ff021916908315150217905550600682015481600601559050505b80806001019150506109c0565b507fde13ffe89f4c7c59f2fd19a7e255909fc6cd6a6bd421117cffbed366623acbb86001604051808215151515815260200191505060405180910390a1565b60036020528060005260406000206000915090508060000160009054906101000a900473ffffffffffffffffffffffffffffffffffffffff1690806001018054600181600116156101000203166002900480601f016020809104026020016040519081016040528092919081815260200182805460018160011615610100020316600290048015610c925780601f10610c6757610100808354040283529160200191610c92565b820191906000526020600020905b815481529060010190602001808311610c7557829003601f168201915b505050505090806002018054600181600116156101000203166002900480601f016020809104026020016040519081016040528092919081815260200182805460018160011615610100020316600290048015610d305780601f10610d0557610100808354040283529160200191610d30565b820191906000526020600020905b815481529060010190602001808311610d1357829003601f168201915b5050505050908060030154908060040154905085565b60066020528060005260406000206000915090508060000160009054906101000a900473ffffffffffffffffffffffffffffffffffffffff1690806001018054600181600116156101000203166002900480601f016020809104026020016040519081016040528092919081815260200182805460018160011615610100020316600290048015610e185780601f10610ded57610100808354040283529160200191610e18565b820191906000526020600020905b815481529060010190602001808311610dfb57829003601f168201915b505050505090806002015490806003018054600181600116156101000203166002900480601f016020809104026020016040519081016040528092919081815260200182805460018160011615610100020316600290048015610ebc5780601f10610e9157610100808354040283529160200191610ebc565b820191906000526020600020905b815481529060010190602001808311610e9f57829003601f168201915b5050505050908060040154908060050160009054906101000a900460ff16908060060154905087565b6000600190505b6002548111151561120057816040516020018082805190602001908083835b602083101515610f305780518252602082019150602081019050602083039250610f0b565b6001836020036101000a03801982511681845116808217855250505050505090500191505060405160208183030381529060405280519060200120600160008381526020019081526020016000206001016040516020018082805460018160011615610100020316600290048015610fdf5780601f10610fbd576101008083540402835291820191610fdf565b820191906000526020600020905b815481529060010190602001808311610fcb575b50509150506040516020818303038152906040528051906020012014801561102e5750600115156001600083815260200190815260200160002060050160009054906101000a900460ff161515145b156111f35760006001600083815260200190815260200160002060060154905060016000838152602001908152602001600020600401543073ffffffffffffffffffffffffffffffffffffffff16311015151561108a57600080fd5b600060036000838152602001908152602001600020600401541115156110af57600080fd5b6001600083815260200190815260200160002060000160009054906101000a900473ffffffffffffffffffffffffffffffffffffffff1673ffffffffffffffffffffffffffffffffffffffff166108fc60016000858152602001908152602001600020600401549081150290604051600060405180830381858888f19350505050158015611141573d6000803e3d6000fd5b50336001600084815260200190815260200160002060000160006101000a81548173ffffffffffffffffffffffffffffffffffffffff021916908373ffffffffffffffffffffffffffffffffffffffff16021790555060006001600084815260200190815260200160002060050160006101000a81548160ff02191690831515021790555060036000828152602001908152602001600020600401600081548092919060019003919050555050611200565b8080600101915050610eec565b5050565b60016020528060005260406000206000915090508060000160009054906101000a900473ffffffffffffffffffffffffffffffffffffffff1690806001018054600181600116156101000203166002900480601f0160208091040260200160405190810160405280929190818152602001828054600181600116156101000203166002900480156112d65780601f106112ab576101008083540402835291602001916112d6565b820191906000526020600020905b8154815290600101906020018083116112b957829003601f168201915b505050505090806002015490806003018054600181600116156101000203166002900480601f01602080910402602001604051908101604052809291908181526020018280546001816001161561010002031660029004801561137a5780601f1061134f5761010080835404028352916020019161137a565b820191906000526020600020905b81548152906001019060200180831161135d57829003601f168201915b5050505050908060040154908060050160009054906101000a900460ff16908060060154905087565b60045481565b60026000815480929190600101919050555060e0604051908101604052808673ffffffffffffffffffffffffffffffffffffffff16815260200185815260200160025481526020018481526020018381526020016001151581526020018281525060016000600254815260200190815260200160002060008201518160000160006101000a81548173ffffffffffffffffffffffffffffffffffffffff021916908373ffffffffffffffffffffffffffffffffffffffff1602179055506020820151816001019080519060200190611482929190611934565b506040820151816002015560608201518160030190805190602001906114a9929190611934565b506080820151816004015560a08201518160050160006101000a81548160ff02191690831515021790555060c082015181600601559050505050505050565b60075481565b6000809054906101000a900473ffffffffffffffffffffffffffffffffffffffff1673ffffffffffffffffffffffffffffffffffffffff163373ffffffffffffffffffffffffffffffffffffffff1614151561154957600080fd5b6000809054906101000a900473ffffffffffffffffffffffffffffffffffffffff1673ffffffffffffffffffffffffffffffffffffffff16ff5b60008090505b6004548110156116b057846040516020018082805190602001908083835b6020831015156115cc57805182526020820191506020810190506020830392506115a7565b6001836020036101000a0380198251168184511680821785525050505050509050019150506040516020818303038152906040528051906020012060036000838152602001908152602001600020600101604051602001808280546001816001161561010002031660029004801561167b5780601f1061165957610100808354040283529182019161167b565b820191906000526020600020905b815481529060010190602001808311611667575b505091505060405160208183030381529060405280519060200120141515156116a357600080fd5b8080600101915050611589565b5060046000815480929190600101919050555060a0604051908101604052803373ffffffffffffffffffffffffffffffffffffffff1681526020018581526020018481526020018281526020018381525060036000600454815260200190815260200160002060008201518160000160006101000a81548173ffffffffffffffffffffffffffffffffffffffff021916908373ffffffffffffffffffffffffffffffffffffffff1602179055506020820151816001019080519060200190611779929190611934565b506040820151816002019080519060200190611796929190611934565b50606082015181600301556080820151816004015590505060008090505b828110156117d8576117cb338686856004546113a9565b80806001019150506117b4565b5050505050565b60025481565b3373ffffffffffffffffffffffffffffffffffffffff166001600084815260200190815260200160002060000160009054906101000a900473ffffffffffffffffffffffffffffffffffffffff1673ffffffffffffffffffffffffffffffffffffffff1614151561185557600080fd5b600180600084815260200190815260200160002060050160006101000a81548160ff02191690831515021790555060036000828152602001908152602001600020600401600081548092919060010191905055505050565b828054600181600116156101000203166002900490600052602060002090601f016020900481019282601f106118e65780548555611923565b8280016001018555821561192357600052602060002091601f016020900482015b82811115611922578254825591600101919060010190611907565b5b50905061193091906119b4565b5090565b828054600181600116156101000203166002900490600052602060002090601f016020900481019282601f1061197557805160ff19168380011785556119a3565b828001600101855582156119a3579182015b828111156119a2578251825591602001919060010190611987565b5b5090506119b091906119b4565b5090565b6119d691905b808211156119d25760008160009055506001016119ba565b5090565b9056fea165627a7a72305820c6cf25f218f8a2c3cfb41ef110f19448c39be3b0c78bad0bedac8a502ee4ba2e0029",
  "source": "pragma solidity ^0.5.0;\r\n\r\ncontract Ticketing {\r\n    address payable owner;\r\n    \r\n    struct Ticket {\r\n        address payable ticketOwner;\r\n        string eventName;\r\n        uint ticketCount;\r\n        string location;\r\n        uint price;\r\n        bool isSellable;\r\n        uint numEvent;\r\n    }\r\n    \r\n    struct Event {\r\n        address eventOwner;\r\n        string eventName;\r\n        string location;\r\n        uint price;\r\n        uint numAvail;\r\n    }\r\n    \r\n    mapping (uint => Ticket) public tickets;\r\n    uint public ticketCount;\r\n    \r\n    event myTicketShow (bool success);\r\n    \r\n    mapping (uint => Event) public events;\r\n    uint public eventCount;\r\n    \r\n    string[] locations = [\"Toronto\", \"Montreal\", \"Calgary\", \"Ottawa\", \"Halifax\", \"New York\", \"Boston\"];\r\n    \r\n    mapping (uint => Ticket) public ownedTickets;\r\n    uint public numMyTickets;\r\n    \r\n    function myTickets() public {\r\n        for (uint i=0; i < ticketCount; i++) {\r\n            if (tickets[i].ticketOwner == msg.sender) {\r\n                numMyTickets++;\r\n                ownedTickets[numMyTickets] = tickets[i];\r\n            }\r\n        }\r\n        emit myTicketShow(true);\r\n    }\r\n    \r\n    function addTicket(address payable _ticketOwner, string memory _eventName, string memory _location, uint _price, uint _eventCount) public {\r\n        ticketCount++;\r\n        tickets[ticketCount] = Ticket(_ticketOwner, _eventName, ticketCount, _location, _price, true, _eventCount);                                                                                                                                                                                                                                                                                                                                                                                                       \r\n    }\r\n    \r\n    function createEvent(string memory _eventName, string memory _location, uint _numAvail, uint _price) public {\r\n        //Check that no events with the same name already exist\r\n        for (uint i = 0; i < eventCount; i++) {\r\n            require(keccak256(abi.encodePacked(events[i].eventName)) != keccak256(abi.encodePacked(_eventName)));\r\n        }\r\n        eventCount++;\r\n        events[eventCount] = Event(msg.sender, _eventName, _location, _price, _numAvail);\r\n        for (uint i = 0; i < _numAvail; i++) {\r\n            addTicket(msg.sender, _eventName, _location, _price, eventCount);\r\n        }\r\n    }\r\n\r\n    function buy(string memory _eventName) public payable {\r\n        for (uint i=1; i <= ticketCount; i++) {\r\n            if (keccak256(abi.encodePacked(tickets[i].eventName)) == keccak256(abi.encodePacked(_eventName)) && tickets[i].isSellable == true) {\r\n                uint num = tickets[i].numEvent;             \r\n                //require(msg.sender.balance >= tickets[i].price);\r\n                require(address(this).balance >= tickets[i].price);\r\n                require(events[num].numAvail > 0);\r\n                (tickets[i].ticketOwner).transfer(tickets[i].price);\r\n                tickets[i].ticketOwner = msg.sender;\r\n                tickets[i].isSellable = false;\r\n                events[num].numAvail--;\r\n                break;\r\n            }\r\n        }\r\n    }\r\n    \r\n    function sell(uint _ticketCount, uint _eventCount) public {\r\n        require(tickets[_ticketCount].ticketOwner == msg.sender);\r\n        tickets[_ticketCount].isSellable = true;\r\n        events[_eventCount].numAvail++;\r\n    }\r\n    \r\n    constructor() public {\r\n        owner = msg.sender;\r\n        createEvent(\"initEvent\", \"Toronto\", 2, 88888888);\r\n        createEvent(\"secondEvent\", \"Toronto\", 2, 88888888);\r\n    }\r\n    \r\n    function endContract() public {\r\n        require(msg.sender == owner);\r\n        selfdestruct(owner);\r\n    }\r\n}",
  "sourcePath": "C:/Users/100547264/Desktop/ticketDeploy/contracts/Ticketing.sol",
  "compiler": {
    "name": "solc",
    "version": "0.5.0+commit.1d4f565a.Emscripten.clang"
  },
  "schemaVersion": "3.0.5",
  "updatedAt": "2019-04-08T21:38:48.486Z",
  "devdoc": {
    "methods": {}
  },
  "userdoc": {
    "methods": {}
  }
}